:100000000C942A000C9434000C9434000C943400AA
:100010000C9434000C9434000C9434000C94340090
:100020000C9434000C9434000C9434000C94340080
:100030000C9434000C9434000C9434000C94340070
:100040000C9434000C9434000C9434000C94340060
:100050000C94340011241FBECFE5D8E0DEBFCDBF25
:100060000E943A000C9455000C94000081B3806B00
:1000700081BB08950E943600979A949A95982FE72D
:100080008AE196E0215080409040E1F700C00000F6
:100090009798949895982FE78AE196E021508040B0
:0E00A0009040E1F700C00000E7CFF894FFCFDA
:00000001FF
