:100000000C942A000C9434000C9434000C943400AA
:100010000C9434000C9434000C9434000C94340090
:100020000C9434000C9434000C9434000C94340080
:100030000C9434000C9434000C9434000C94340070
:100040000C9434000C9434000C9434000C94340060
:100050000C94340011241FBECFE5D8E0DEBFCDBF25
:100060000E9491000C94BD000C940000599A8AB132
:1000700088618AB980B5866880BD8CE089B910BC7A
:1000800008955F9B02C08CB1089580E0089587B306
:10009000876187BB81B3806381BB88B3887E88BB5F
:1000A00008958FB5816A8FBD8EB58B608EBD089522
:1000B0001BBC1ABC19BC18BC0895C09AC198C29A3E
:1000C000C49888E790E09BBD8ABD86E990E099BD21
:1000D00088BD0895C098C19AC298C49A88E790E0F4
:1000E0009BBD8ABD86E990E099BD88BD0895C09802
:1000F000C19AC29AC49888E790E09BBD8ABD86E900
:1001000090E099BD88BD0895C09AC198C298C49ADC
:1001100088E790E09BBD8ABD86E990E099BD88BDE7
:1001200008950E9436000E9447000E9451000E94DC
:100130005800D3E50E944100C82F882339F0D81712
:1001400031F0863431F40E945D0001C0CD2FDC2FE8
:10015000F1CF823419F40E946A00F9CF8C3419F47B
:100160000E947700F4CF823519F40E948400EFCF0B
:0E017000833569F70E945800EACFF894FFCF5C
:00000001FF
