:100000000C942A000C9434000C9434000C943400AA
:100010000C9434000C9434000C9434000C94340090
:100020000C9434000C9434000C9434000C94340080
:100030000C9434000C9434000C9434000C94340070
:100040000C9434000C9434000C9434000C94340060
:100050000C94340011241FBECFE5D8E0DEBFCDBF25
:100060000E9467000C94DE000C940000599A8AB13B
:1000700088618AB980B5866880BD8CE089B910BC7A
:1000800008958BB1807808958CB1089587B3876106
:1000900087BB81B3806381BB88B3887E88BB0895AA
:1000A0008FB5816A8FBD8EB58B608EBD08951BBCE8
:1000B0001ABC19BC18BC0895C09AC198C29AC498B9
:1000C00090E09BBD8ABD70E079BD68BD08950E9437
:1000D00036000E9446000E9450000E94570090E0A7
:1000E00080E010E000E0D0E00FC010E590E080E09C
:1000F000D1E00AC01CE4FACF12E5F8CF12E4F6CF43
:100100000C2F90E080E0D2E05F9B4BC0CCB166E961
:1001100086E90E945C0087EA91E60197F1F700C04A
:1001200000000E945700D11113C0C33529F40E946A
:10013000570090E080E0E8CFC035B9F2CC34D1F27E
:10014000C235D1F2C234D1F2C63499F716E4CECF1B
:10015000D130B1F2D23069F7103511F0163439F4DC
:100160006C2F802F0E945C0090E080E0BCCF1C349C
:1001700061F4C098C19AC29AC498802F90E09BBD48
:100180008ABDD0E0D9BDC8BDEFCF123529F4C09AE1
:10019000C198C298C49AF1CF123431F7C098C19A6D
:1001A000F8CFDD2309F4B0CF21E22A95F1F7000062
:1001B00001968536910508F4A7CFD6CFF894FFCFE6
:00000001FF
