:100000000C942A000C9434000C9434000C943400AA
:100010000C9434000C9434000C9434000C94340090
:100020000C9434000C9434000C9434000C94340080
:100030000C9434000C9434000C9434000C94340070
:100040000C9434000C9434000C9434000C94340060
:100050000C94340011241FBECFE5D8E0DEBFCDBF25
:100060000E9467000C94D1000C940000599A8AB148
:1000700088618AB980B5866880BD8CE089B910BC7A
:1000800008958BB1807808958CB1089587B3876106
:1000900087BB81B3806381BB88B3887E88BB0895AA
:1000A0008FB5816A8FBD8EB58B608EBD08951BBCE8
:1000B0001ABC19BC18BC0895C09AC198C29AC498B9
:1000C00090E09BBD8ABD70E079BD68BD08950E9437
:1000D00036000E9446000E9450000E94570090E0A7
:1000E00080E0D0E010E0C0E00FC0D0E590E080E01C
:1000F000C1E00AC0DCE4FACFD2E5F8CFD2E4F6CF13
:10010000162F90E080E0C2E05F9B3EC06CB1C11151
:1001100013C0633529F40E94570090E080E0F4CFCB
:10012000603519F36C3431F3623531F3623431F3F5
:10013000663499F7D6E4DACFC13011F3C23069F7EB
:10014000D03511F0D63431F4812F0E945C0090E05C
:1001500080E0C9CFDC3461F4C098C19AC29AC498D7
:10016000812F90E09BBD8ABD70E079BD68BDEFCF67
:10017000D23529F4C09AC198C298C49AF1CFD2342A
:1001800031F7C098C19AF8CFCC2309F4BDCF21E252
:100190002A95F1F7000001968536910508F4B4CF51
:0601A000D6CFF894FFCF5A
:00000001FF
