:100000000C942A000C9434000C9434000C943400AA
:100010000C9434000C9434000C9434000C94340090
:100020000C9434000C9434000C9434000C94340080
:100030000C9434000C9434000C9434000C94340070
:100040000C9434000C9434000C9434000C94340060
:100050000C94340011241FBECFE5D8E0DEBFCDBF25
:100060000E949B000C94D2000C940000599A8AB113
:1000700088618AB980B5866880BD8CE089B910BC7A
:1000800008958BB1807808958CB1089587B3876106
:1000900087BB81B3806381BB88B3887E88BB0895AA
:1000A0008FB5816A8FBD8EB58B608EBD08951BBCE8
:1000B0001ABC19BC18BC0895C09AC198C29AC498B9
:1000C00081E990E09BBD8ABD88EC90E099BD88BD38
:1000D0000895C09AC198C29AC49890E09BBD8ABD09
:1000E00070E079BD68BD0895C098C19AC298C49A5D
:1000F00081E990E09BBD8ABD88EC90E099BD88BD08
:100100000895C098C19AC29AC49881E990E09BBDB5
:100110008ABD88EC90E099BD88BD0895C09AC198C9
:10012000C298C49A81E990E09BBD8ABD88EC90E0BA
:1001300099BD88BD08950E9436000E9446000E9425
:1001400050000E945700D0E0C0E001C0C1E05F9BBA
:10015000FECF6CB1C1111EC06035C1F3633531F4FF
:100160000E945700F4CFD62FC2E0F1CF6C3419F4BF
:100170000E948100ECCF623519F40E948E00E7CF17
:10018000663419F40E945C00E2CF623401F70E94E9
:100190007400DDCFC13039F3C230C9F68D2F0E9413
:0801A0006900D2CFF894FFCFF3
:00000001FF
