:100000000C942A000C9434000C9434000C943400AA
:100010000C9434000C9434000C9434000C94340090
:100020000C9434000C9434000C9434000C94340080
:100030000C9434000C9434000C9434000C94340070
:100040000C9434000C9434000C9434000C94340060
:100050000C94340011241FBECFE5D8E0DEBFCDBF25
:100060000E9468000C9481000C940000599A8AB197
:1000700088618AB980B5866880BD8CE089B910BC7A
:1000800008955F9B02C08CB1089580E0089587B306
:10009000876187BB81B3806381BB88B3887E88BB5F
:1000A00008958FB5816A8FBD8EB58B608EBD089522
:1000B000C09AC198C29AC4988FEF90E09BBD8ABD48
:1000C00099BD88BD08951BBC1ABC19BC18BC089505
:1000D0000E9436000E9447000E945100C0E00E942A
:1000E0004100863431F4C634D1F30E945800C6E48E
:1000F000F6CF8335A1F7C33591F30E946300C3E5C2
:06010000EECFF894FFCFE2
:00000001FF
